:02000002B0004C
:1040000000400B00FC670B00000006000C000502DE
:084010000401A60F00000000EE
:04401800D05E0B006B
:10401C0009480A49884208B505D0094A824202D0AB
:10402C00121A01F08BFE0748074A0021121A01F000
:10403C0093FE014808BD00BF8CE5032038670B00D8
:10404C0028E6032028E60320EDE7032070B5074E91
:10405C00074C00F0BBFEA41BA4080025AC4200D109
:10406C0070BD56F8043B98470135F7E7E4660B0042
:10407C000C670B0000F00CB908B500F077F9BDE83F
:10408C00084000F05BBE00F065BC00F063BC00F0C3
:10409C0069BC0078B0FA80F04009704701230370C6
:1040AC0070470EB403B503AB002153F8042B0193F6
:1040BC0000F0D5FD02B05DF804EB03B070470000D2
:1040CC0038B584690A4B036005467CB16368013BD3
:1040DC0063605BB9236820469B689847A368013BE3
:1040EC00A3601BB923682046DB689847284638BD77
:1040FC009C640B0010B50446FFF7E2FF20461C2120
:10410C00FFF7C5FF204610BD1FB52549044668467C
:10411C0000F0FDFC00F07CFF22462249FFF7C1FFB6
:10412C002149684600F01EFD204A2149128851F8A9
:10413C0024102048002301F0E5F828B31E491D483F
:10414C0000F065FD1D491B4800F061FD1C49194834
:10415C0000F05DFD1B49174800F059FD1A49154840
:10416C0000F042FD029913480A2200F05AFD114852
:10417C0000F041FD0F4800F03EFD00990D4800F0A5
:10418C0033FD0C4800F037FD0A4801F039F910B145
:10419C00084801F06DFA684600F06EFC04B010BDE2
:1041AC00D7620B00B15F0B00BF5F0B00B8E50320BB
:1041BC00A4E5032070E60320EB600B0013610B00F9
:1041CC0039610B0076610B00705F0B001FB5254940
:1041DC000446684600F09BFC00F01AFF2246224978
:1041EC00FFF75FFF2149684600F0BCFC204A2149DB
:1041FC00128851F824102048002301F083F828B3CA
:10420C001E491D4800F003FD1D491B4800F0FFFC32
:10421C001C49194800F0FBFC1B49174800F0F7FC3F
:10422C001A49154800F0E0FC029913480A2200F0E4
:10423C00F8FC114800F0DFFC0F4800F0DCFC0099A2
:10424C000D4800F0D1FC0C4800F0D5FC0A4801F0F8
:10425C00D7F810B1084801F00BFA684600F00CFCD6
:10426C0004B010BDD7620B008D610B009C610B007C
:10427C00B8E50320A4E5032070E60320EB600B00F7
:10428C0013610B0039610B0076610B00705F0B0042
:10429C0070B594B000F0BCFE4FF4165100F0A8FEBF
:1042AC00002000F093F943F698250446002000F016
:1042BC008DF9001B61F10001A84271F1000307D2D6
:1042CC0000F0A6FE00F098FE10B900F033FBEDE70D
:1042DC0000F09EFE214D224E00F08EFE00231A4669
:1042EC001946686800F0DEFA3822002106A801F0B1
:1042FC0033FD4C2301931B4B02930A220023CDE97F
:10430C000323194601AA6868059300F0EBFA002311
:10431C0068681A46194600F0A5FA0022686811462A
:10432C0000F0A8FA044628B100F072FE3146FFF7FF
:10433C00B8FEF2E74FF47A7000F0D4FC00F068FE9F
:10434C000949FFF7AEFE0121042001F01DFB2146B7
:10435C00112014B0BDE8704001F016BB0CE703202F
:10436C00D3620B00C8620B00D5620B0010B500F0D5
:10437C004FFE1649164C0022FFF793FE0020FFF764
:10438C00C3FE41F2883000F0ADFC00F041FE00228B
:10439C001049FFF786FE0020FFF718FF41F2883026
:1043AC0000F0A0FC0121042001F0FFFA112001F023
:1043BC0015FB206000F02CFE22680749FFF771FE08
:1043CC00BDE810404FF47A7000F08CBCD8620B0042
:1043DC009CE60320ED620B0003630B0008B5194942
:1043EC00194800F094FB194A194B12681A60194AC3
:1043FC00194812685A60194A12689A60184A126869
:10440C00DA60184A12681A61174A12685A61174A18
:10441C0012689A6101F076F9154801F073F90223DC
:10442C001A461946134800F060F8134B0022C3E9F2
:10443C000022A2F580329A60BDE80840012000F00D
:10444C00EDB900BFD7620B008CE6032060E60320B9
:10445C0044E6032098E5032028E60320A0E503208A
:10446C0090E503208CE5032094E503209CE50320D4
:10447C0070E60320A0E6032064E6032038B504466A
:10448C00C0680D4608B100F06DFAA379062B0CBF7D
:10449C000420032010FB05F080B2A08000F05AFA33
:1044AC00E06028B1A288002101F056FC658038BD7F
:1044BC00A0806080FBE737B5037805460C461BB13E
:1044CC00C079002101F060FA2B78EC715BB1A0B2DD
:1044DC000121019001F058FA0198002103B0BDE8C8
:1044EC00304001F062BA03B030BD70B5002504460F
:1044FC0016468371C0E9035505700572FFF7BEFFC0
:10450C0020463146FFF7D7FF204670BD08B500F0B6
:10451C0015F8014B186008BDB4E6032008B5024B32
:10452C001B689B68019308BD6802030008B5024B29
:10453C001B68DB68019308BD6802030008B5024BD9
:10454C001B681B68019308BD2C02030008B5024BC5
:10455C001B685B68019308BD2C02030008B5024B75
:10456C001B689B68019308BD2C02030008B5024B25
:10457C001B68DB68019308BD2C02030008B5024BD5
:10458C001B681B69019308BD2C02030008B5024B84
:10459C001B681B6B019308BD2C02030008B5024B72
:1045AC001B685B69019308BD6C02030008B5024BE4
:1045BC001B685B68019308BD1802030008B5024B29
:1045CC001B685B69019308BD1802030008B5024B18
:1045DC001B68DB6D019308BD1802030008B5024B84
:1045EC001B685B6C019308BD4802030008B5024BC5
:1045FC001B685B69019308BD6402030008B5024B9C
:10460C001B681B6A019308BD6402030008B5024BCA
:10461C001B689B6A019308BD6402030008B5024B3A
:10462C001B68DB68019308BD3C02030008B5024B14
:10463C001B681B69019308BD3C02030008B5024BC3
:10464C001B685B69019308BD3C02030008B5024B73
:10465C001B689B69019308BD3C02030008B5024B23
:10466C001B68DB69019308BD3C02030008B5024BD3
:10467C001B681B6A019308BD3C02030008B5024B82
:10468C001B689B6A019308BD3C02030008B5024BF2
:10469C001B681B6C019308BD3C02030008B5024B60
:1046AC001B681B6A019308BD2802030008B5024B66
:1046BC001B685B6A019308BD2802030008B5024B16
:1046CC001B689B6A019308BD2802030008B5024BC6
:1046DC001B68DB6A019308BD2802030008B5024B76
:1046EC001B681B6B019308BD2802030008B5024B25
:1046FC001B685B6B019308BD2802030008B5024BD5
:10470C001B681B6C019308BD2802030008B5024B03
:10471C001B689B69019308BD3802030008B5024B66
:10472C001B68DB69019308BD3802030008B5024B16
:10473C001B681B6A019308BD3802030008B5024BC5
:10474C001B689B6A019308BD3802030008B5024B35
:10475C001B681B6B019308BD3802030008B5024BA4
:10476C001B689B6B019308BD3802030008B5024B14
:10477C001B68DB69019308BD3002030008B5024BCE
:10478C001B681B6A019308BD3002030008B5024B7D
:10479C001B681B68019308BD4C02030008B5024B53
:1047AC001B685B68019308BD4C02030008B5024B03
:1047BC001B681B69019308BD4C02030008B5024B32
:1047CC001B685B69019308BD4C02030008B5024BE2
:1047DC001B689B69019308BD4C02030008B5024B92
:1047EC001B68DB69019308BD4C02030008B5024B42
:1047FC001B681B6A019308BD4C02030008B5024BF1
:10480C001B689B6A019308BD4C02030008B5024B60
:10481C001B681B6D019308BD6002030008B5024BB9
:10482C001B685B68019308BD2002030008B5024BAE
:10483C001B685B69019308BD2002030008B5034B9C
:10484C001B68D3F88830019308BD000020020300D8
:10485C0008B5034B1B68D3F89430019308BD0000D6
:10486C002002030008B5024B1B685B68019308BD6E
:10487C004002030008B5024B1B689B68019308BDFE
:10488C004002030008B5024B1B68DB68019308BDAE
:10489C004002030008B5024B1B681B69019308BD5D
:1048AC004002030008B5024B1B685B69019308BD0D
:1048BC004002030008B5024B1B689B69019308BDBD
:1048CC004002030008B5024B1B68DB69019308BD6D
:1048DC004002030008B5024B1B681B6A019308BD1C
:1048EC004002030008B5024B1B689B6A019308BD8C
:1048FC004002030008B5024B1B681B6B019308BDFB
:10490C004002030008B5024B1B685B6B019308BDAA
:10491C004002030008B5024B1B681B6C019308BDD9
:10492C004002030008B5024B1B685B6C019308BD89
:10493C004002030008B5024B1B689B68019308BD3D
:10494C004402030008B5024B1B68DB6B019308BDE6
:10495C004402030008B5024B1B681B68019308BD99
:10496C001C02030008B5024B1B685B68019308BD71
:10497C001C02030008B5024B1B689B68019308BD21
:10498C001C02030008B5024B1B685B6A019308BD4F
:10499C001C02030008B5024B1B68DB6B019308BDBE
:1049AC001C02030008B5024B1B681B6C019308BD6D
:1049BC001C02030008B5024B1B685B6C019308BD1D
:1049CC001C020300002240681146FFF783BF00223F
:1049DC0040681146FFF796BF40680022FFF78ABF78
:1049EC004068002281F00101FFF76CBF0023406892
:1049FC001A461946FFF75EBF002340681A4619464F
:104A0C00FFF750BF002240681146FFF743BF00225A
:104A1C0040681146FFF72EBF406800220221FFF7C5
:104A2C0031BF002340681A46FFF71CBF024B03221C
:104A3C005A60024A1A607047B8E6032068630B009C
:104A4C0010B5044608462170FFF790FE0023636002
:104A5C00204610BD054B02221A60054B054A9A6090
:104A6C000020C3E90000FFF7D9BE00BFCCE603204D
:104A7C00C0E603200000FFFF10B504460068FFF7F6
:104A8C0071FF204610BD10B50446006808B1FFF751
:104A9C0069FF0023C4E90133236010BD38B5044617
:104AAC000D4600680131FFF765FF10B1C4E9000540
:104ABC00012038BD10B50368044623B143688B420E
:104ACC0001D3012010BD2046FFF7E8FF0028F9D0E4
:104ADC00A368002BF5D122681370F2E737B50D46A9
:104AEC00114601920446FFF7E5FF019A28B92046CA
:104AFC00FFF7C9FF204603B030BDA26029462068ED
:104B0C0001F01CF92268A3680021D154F2E70023BC
:104B1C0013B5C0E9003304468360037341B1084602
:104B2C00019101F061F9019902462046FFF7D6FF89
:104B3C00204602B010BD70B505460E4609B90020DE
:104B4C0070BD6AB1846814442146FFF7B3FF002896
:104B5C00F5D02868AB683146184401F03DF9AC60DB
:104B6C000120EDE713B50446084651B1019101F05F
:104B7C003BF901990246204602B0BDE81040FFF710
:104B8C00DABF02B010BD0000024800230360FFF73B
:104B9C0025BD00BFD0E60320F8B506460D468F189C
:104BAC000024BD420CD0336815F8011B9B683046BD
:104BBC009847031E01DB1C44F3E7002C08BF1C467E
:104BCC002046F8BD13B50446084659B1019101F0D1
:104BDC000BF923680199DB680246204602B0BDE858
:104BEC001040184702B010BD08B5FFF7EBFF08BD29
:104BFC0003689B68184738B50D210546FFF7F8FF89
:104C0C000A2104462846FFF7F3FF204438BD38B587
:104C1C000546FFF7D7FF04462846FFF7ECFF204474
:104C2C0038BD30B58BB00023012A8DF8243098BFE5
:104C3C000A2209AC0D46B1FBF2F101FB125303F051
:104C4C00FF03092B94BF30333733DBB2AA4204F88D
:104C5C00013DEFD92146FFF7B5FF0BB030BD2DE973
:104C6C00F04186B000AF05460E46381D142114469F
:104C7C003B60FFF787FE13280ED8391D2846FFF737
:104C8C00A1FF04461EB12846FFF7B5FF0444204699
:104C9C001837BD46BDE8F08100F1080323F0070387
:104CAC00E846ADEB030D2246411C3B686846FFF716
:104CBC0069FE69462846FFF785FF0446C546E1E7CD
:104CCC00014B024A1A607047D4E60320A4630B0020
:104CDC00024B1A68024B1A60704700BFBCE50320F8
:104CEC00D8E603200021FFF7A1BD0000014B0022F4
:104CFC009A607047DCE60320014B1860704700BFD8
:104D0C00C0E5032008B50B4B43B100F081F90368F3
:104D1C001B699847002801DDAFF30080064B43B1B7
:104D2C0000F08EFE03681B699847002801DDAFF385
:104D3C00008008BD000000000000000008B5FFF76F
:104D4C00E1FFFFF73BFC014B186008BD40E7032077
:104D5C000548064A064908B5121A00F0EFFF054B44
:104D6C00054A1A6008BD00BF00F4032004F40320B8
:104D7C0034670B0000F403201E1C279A07B5002390
:104D8C0000931A466FF07701FFF762FD03B05DF8F0
:104D9C0004FB000007B543880A2B08D0502B0BD11D
:104DAC00094B1B684BB103B05DF804EB1847FFF7D8
:104DBC00E5FF03B05DF804FB002300931A466FF087
:104DCC007701FFF745FDF4E7F0E6032010B5124834
:104DDC000021FFF7EFFD114B1A68114B9A42114B52
:104DEC000CBF012200221A7001D0FFF7B1FFFFF7B0
:104DFC00DDFB044600F0B8FF0B4B13B12046AFF3BC
:104E0C00008000210848FFF79DFDBDE810400748D1
:104E1C000021FFF713BD00BF054D0B0000F403206C
:104E2C001E1C279AECE6032000000000A14D0B008D
:104E3C00704710B518210446FFF729F9204610BD1C
:104E4C00F0B5037D062B8DB00E4600F104074FF034
:104E5C00000412D000F1080515F8011D0A22304695
:104E6C00FFF7DFFEAF42044419D0002CF4D02E2102
:104E7C003046FFF7BDFE0444EEE72F236A46394661
:104E8C000A208DF80040FFF7B1FB684600F0ACFF3C
:104E9C0033680246DB68694630469847044620462C
:104EAC000DB0F0BD10B5054B0446112240F8043B83
:104EBC00002100F051FF204610BD00BFCC630B0059
:104ECC000346074A10B543F8042B01F1100251F8C0
:104EDC00044B43F8044B9142F9D10A781A7010BD77
:104EEC00CC630B00037D042B04D14068003818BF41
:104EFC0001207047062B07D143683BB983682BB957
:104F0C00C3681BB90069F1E70020704701207047A6
:104F1C0010B59DF8084044EA032343EA024242EAF2
:104F2C00016104234160037510BD000007B5064BF9
:104F3C000360CB7800938B784A780978FFF7E8FF09
:104F4C0003B05DF804FB00BFCC630B0041747047E9
:104F5C007047704708B50021007CFFF737FC40EA2A
:104F6C00E07008BD08B50121007CFFF72FFC40EA7A
:104F7C00E07008BD08B5007CFFF720FC20EAE0706B
:104F8C0008BD08B5007CFFF711FC20EAE07008BDF5
:104F9C0013B50446007C0191FFF710FC0028019921
:104FAC0001DC607C20B1207CFFF718FC20EAE0706B
:104FBC0002B010BD007CFFF719BC10B514210446DB
:104FCC00FFF765F8204610BD10B54FF47A73044610
:104FDC0008460021C4E90113044B2360012320740B
:104FEC0063741146FFF7D2FB204610BDE0630B0043
:104FFC00007C0022FFF7D2BB007CFFF7FFBB10B593
:10500C0014220446002100F0A7FE204610BD00002B
:10501C0010B50F4C88B003A8FFF7F1FF2178BFF350
:10502C005B8F11F001010FD120460191FFF731F890
:10503C00019948B103AA0748FFF7C6FF2046FFF7BE
:10504C002DF8054800F074FE024808B010BD00BFF2
:10505C00F4E60320F8E603205D4F0B007047417423
:10506C00704708B5007CFFF709FB20EAE07008BD2B
:10507C0008B5007CFFF7DAFA20EAE07008BD08B545
:10508C00007CFFF7E3FA40EAE07008BD08B5007C4D
:10509C00FFF7D4FA40EAE07008BD007CFFF7DEBAF7
:1050AC0037B5457C04462DB1207C03B0BDE83040BB
:1050BC00FFF7B4BA007C0191FFF7E0FA00280199E0
:1050CC00F2DC284603B030BD10B514210446FEF7BF
:1050DC00DEFF204610BD000010B54FF47A73044675
:1050EC00084611460022C4E90123044B2360012326
:1050FC0020746374FFF7CAFA204610BD10640B00CD
:10510C007047F8B5064615460C468F18BC4206D0BB
:10511C00336814F8011B9B6830469847F6E728461D
:10512C00F8BD007C0022FFF7B9BA007C0021FFF724
:10513C00BDBA007C0021FFF7C1BA007C0021FFF74B
:10514C00C5BA007C0021FFF7C9BA10B5142104467A
:10515C00FEF79DFF204610BD38B5044615464FF4AA
:10516C007A730022C4E90123094B21740846236099
:10517C002946FFF7C3FABF3008D16B69DB0705D5A9
:10518C006868FFF7EFFBE868FFF7ECFB204638BDDB
:10519C0040640B0013B503688DF80710DC6B01221B
:1051AC004FF0FF330DF10701A04702B010BD10B452
:1051BC000368DC6B4FF0FF33A4465DF8044B60478B
:1051CC0013B5134602688DF80710D46B0DF1070167
:1051DC000122A04702B010BD10B54369B3F8862078
:1051EC00B3F884309A42044608D06369B3F884203B
:1051FC00511CA3F884101344187910BD03681B6963
:10520C0098470028F1D14FF0FF30F6E7704743691B
:10521C001868C043C00F704770470000064B994296
:10522C0010B500F10C0405D0084600F06FFC002806
:10523C0008BF0024204610BD9C630B0010B5AC21A8
:10524C000446FEF724FF204610BDAC21FEF71FBF1D
:10525C002DE9F0414FF0000886B01C46C0F80480E0
:10526C0005460E4617464146102202A800F074FD72
:10527C00631C09D04FF47A73B4FBF3F203FB1244B2
:10528C00CDE902285C4304946869102300930068FC
:10529C0002AB41F2050240F6FF71FFF737FA002826
:1052AC0007DAFFF777FB03686B60002006B0BDE8F8
:1052BC00F0816869002300683A463146FFF746FAE8
:1052CC00031EEEDB1846F1E730B587B0044601AD9E
:1052DC006846FFF72BFE0FCD04340FC42B682370E8
:1052EC0007B030BD70B54D69054B04468C3544F89C
:1052FC00043B06460FCD0FC42B682370304670BD9F
:10530C00CC630B002DE9F0439846036893B00D462F
:10531C000024DB6A06461746984728466B46224609
:10532C0021460094FFF702F90546002863D1009B43
:10533C00002B4BD05B69002B48D006A8FFF7B2FDC1
:10534C00009B5C696378022B04D1211D06A8FFF732
:10535C00BBFF26E00A2B24D11122294601A800F01C
:10536C00FBFCA368002B38D004F108030DF1040CEE
:10537C00183418685968624603C20833A34294462D
:10538C00F7D1062301A90CA88DF81430FFF798FD6E
:10539C000DF1340CBCE80F0007AC0FC4DCF8003086
:1053AC00237006A8FFF79EFD80B1336807ADD3F8D4
:1053BC002090124B0C930FCD0DAC0FC42B682370A7
:1053CC003A4643460CA93046C84705460098FFF7B5
:1053DC00A5F8284613B0BDE8F083E368002BC3D1D1
:1053EC004FF6FF70D4F81090FFF708F98145BBD148
:1053FC0004F11401AAE72546E8E700BFCC630B00D3
:10540C0038B543691A68002A054610DAB3F88620C5
:10541C00B3F884309A420AD103681B699847044652
:10542C0028B92B682846DB6A9847204638BD0120EE
:10543C00FCE710B54369B3F88620B3F884309A4280
:10544C00044605D06369B3F884201344187910BD61
:10545C0003681B6998470028F4D14FF0FF30F6E73A
:10546C00F8B543691746B3F88620B3F884309A42EE
:10547C0005460E4616D06969B1F88430B1F88640FD
:10548C00E41ABC4228BF3C46043322461944304639
:10549C0000F054FC6A69B2F884302344A2F88430DA
:1054AC002046F8BD03681B6998470028E3D14FF0EC
:1054BC00FF34F5E742690023A2F884304269A2F870
:1054CC00863070472DE9F0411F4603680C46DB6AB5
:1054DC008AB0054616469847237DD5F81480042BD0
:1054EC000CBF02200A2006220121FFF737F9C8F869
:1054FC0000006B691B68002B08DA2B682846DB6AF6
:10550C000024984720460AB0BDE8F0812846FFF7F2
:10551C00D1FFB7B1002303A9F8B20393ADF8103053
:10552C00FFF73CF80028E8D168690623009300686F
:10553C0003AB41F20B0240F6FF71FFF7E7F80028CE
:10554C00DBD11C22002103A800F006FC237D042BD8
:10555C001DD14FF407733046ADF80C30FFF756F8F9
:10556C00ADF80E006068FFF749F804906B691C22D7
:10557C00186803A9FFF7DAF80028BED104340FCC61
:10558C006D698C350FC523682B700124BAE740F682
:10559C001C233046ADF80C30FFF738F805AEADF8EB
:1055AC000E00231D04F1140718685968324603C213
:1055BC000833BB421646F7D1D8E7000030B5426934
:1055CC00B2F886308BB004462BB1B2F884209A42E4
:1055DC0001D1FFF76FFF61690868002818DBB1F88B
:1055EC0086507F2D14D804310823C5F1800229443C
:1055FC00FFF7A4F8002813DD6369B3F886200AB915
:10560C00A3F884206369B3F886201044A3F88600BD
:10561C006369B3F88600B3F88430C01A0BB030BDA0
:10562C00FFF7B8F903680B2BF2D0FFF7B3F9036857
:10563C000B2BEDD020230025CDE90235FFF7AAF97D
:10564C0003680193084B0949009302AA2B463220A8
:10565C00FFF7DCF863691868FFF760F863694FF0CF
:10566C00FF321A60D4E700BF67640B0060640B0064
:10567C0010B5436904461868002801DBFFF74EF8A3
:10568C0063694FF0FF321A606069112200218C307F
:10569C0000F062FB2046BDE81040FFF70BBF10B5D1
:1056AC00002304460160C0F884308830FFF7FAFB11
:1056BC00204610BD73B500234FF47A72C0E9013255
:1056CC000E4A0361026043610446AC200191FEF76F
:1056DC00DAFC051E05F10C0608D00123C5E90133DF
:1056EC00074B01992B603046FFF7D9FF2046C4E9E0
:1056FC000565FFF7DFFE02B070BD00BF9C640B00B8
:10570C0080640B0010B54FF0FF310446FFF7D2FF59
:10571C00204610BD10B504460068002801DBFEF7DA
:10572C00FDFF204610BD0C30FFF7F4BF002240688F
:10573C001146FFF7AFB8002240681146FFF7CAB810
:10574C00002240681146FFF7DDB840680022FFF7E1
:10575C00D1B84068002281F00101FFF7B3B80023F3
:10576C0040681A461946FFF7A5B8002340681A4648
:10577C001946FFF797B8002240681146FFF77AB830
:10578C00406800220221FFF77DB8002340681A46CA
:10579C00FFF768B8024B04225A60024A1A6070473D
:1057AC000CE70320E8640B00002340681A46FFF75F
:1057BC0059B8406800220221FFF764B80022406803
:1057CC001146FFF757B8002240681146FFF762B840
:1057DC00002340681A461946FFF764B80023406856
:1057EC001A461946FFF766B840680021FFF792B8D1
:1057FC0040680021FFF796B84068002281F0010153
:10580C00FFF760B840680022FFF774B800224068C8
:10581C001146FFF777B8002240681146FFF75AB8D7
:10582C002DE9F04395B014460D460746FFF73AFBB9
:10583C0000211C220DA8009100F08EFA40230C933D
:10584C0020466B460CAA0021FEF770FE0446002889
:10585C004BD1024601216868FFF71CF802218046F3
:10586C0022466868FFF716F8009E81462146002EF6
:10587C003BD0002939D17368022B03D00A2B11D0ED
:10588C00F669F4E7B8F1000FFAD0716906A8043193
:10589C0007ADFFF74BFB0FCD3C1D0FC42B682370DE
:1058AC004146EDE7B9F1000FEAD07469102201A866
:1058BC0000F052FA06238DF8143001AD04F1080300
:1058CC001834186859682A4603C20833A34215468F
:1058DC00F7D101A906A807ADFFF7F2FA0FCD3C1DD1
:1058EC000FC42B6823704946CAE70098FEF716FED2
:1058FC00384615B0BDE8F083024B034A1A6000220B
:10590C005A60704714E7032024650B00232813B555
:10591C0002D9002002B010BDA0F10B03022B1AD843
:10592C00174C2178BFF35B8F11F001010BD120468E
:10593C000191FEF7AEFB019928B11248FFF780F8F0
:10594C002046FEF7ABFB0F4B1878FEF717FF00282D
:10595C00DFD10120DEE7012809D800F0B1F80021E1
:10596C00007CFEF7C3FE80F00100C0B2D2E709381C
:10597C000128EED800F064F8007CFEF777FEF2E721
:10598C001CE7032020E70320232838B504460D46E6
:10599C000AD8FF2908D0FFF7B9FF28B129462046BD
:1059AC00BDE83840FEF7DABD38BD38B504460D46C3
:1059BC00FEF7DCFDFF2810D0062804D84D2323FA6F
:1059CC0000F0C30709D42046FFF7A0FF28B12946F1
:1059DC002046BDE83840FEF7D1BD38BD0D2810B5C6
:1059EC0004469CBF0E34A4B22046FFF78FFF50B183
:1059FC0003212046FEF7AAFD032804D12046BDE86A
:105A0C001040FEF7C3BD002010BD704738B50446EA
:105A1C0014252A46002100F09FF9258040250749CE
:105A2C0025812846258200F06FF8044960602846DD
:105A3C0000F06AF8E060204638BD00BF58650B00E6
:105A4C0030B50E4D2978BFF35B8F11F0010487B090
:105A5C0011D12846FEF71DFB68B101A8FFF7D6FF50
:105A6C0001AA21460648FFF737FB2846FEF716FB2E
:105A7C00044800F05DF9024807B030BD28E7032068
:105A8C002CE70320175A0B007047000038B50A4B5F
:105A9C0003600123044643610849202000F034F8D8
:105AAC00202560600549A560284600F02DF8C4E962
:105ABC000305204638BD00BF1800010058650B00D7
:105ACC0030B50E4D2978BFF35B8F11F0010487B010
:105ADC0011D12846FEF7DDFA68B16846FFF7D6FF0C
:105AEC006A4621460648FFF737FB2846FEF7D6FAEA
:105AFC00044800F01DF9024807B030BD44E703200C
:105B0C0048E70320955A0B00FEF7BFBA014900F095
:105B1C00F9B800BF74650B007FB500241023CDE9E4
:105B2C000234036815469E6912686B46CDE9004441
:105B3C00B0479DF8043003F00603062B03BF009B0F
:105B4C002B600120204604B070BD0098904214BF19
:105B5C00012006207047000010B5034B036004467B
:105B6C0000F0CDF8204610BDB4650B0010B504460E
:105B7C00FFF7F2FF20460821FEF789FA204610BDF8
:105B8C002DE9F0411F46DDE90834DDF81880984511
:105B9C000646154607D1079900F0B4F818B165719F
:105BAC000020BDE8F0813946304600F0ABF8002803
:105BBC00F6D00123C4F800802571A371F0E738B545
:105BCC0015461C4600F09EF820B10823E36006231E
:105BDC002560237138BD73B505460C4601921E46EF
:105BEC0000F090F850B9032E08D82368019A5B692D
:105BFC002946204602B0BDE87040184702B070BD7F
:105C0C0010B5034B03600446FFF7A6FF204610BDFA
:105C1C0014660B0010B50446FFF7F2FF20460C216A
:105C2C00FEF735FA204610BDF7B5089F974205469A
:105C3C000E4614460AD0A86802680897156A3146C1
:105C4C002246AC4603B0BDE8F040604719460193CC
:105C5C0000F058F8019B0028EDD0062003B0F0BDF1
:105C6C002DE9F14F0D461946DDE90A4BDDE90CA68D
:105C7C0081461746984600F045F890B1002D3460E7
:105C8C00377109DB61198A450CBF06210121B171FD
:105C9C00002001B0BDE8F08F0235F9D10123B371BA
:105CAC00F6E7544506D15946484600F02BF808B1A2
:105CBC007771EDE7D9F808000368CDE90CA6CDE9BA
:105CCC000A4BDC693A4643462946A44601B0BDE876
:105CDC00F04F60472DE9F04107460C4615461E462D
:105CEC00FFF76DFF48B9B86803689F692A463346C9
:105CFC002146BC46BDE8F0416047BDE8F0817047E5
:105D0C0000207047814208B50ED0406803782A2BDA
:105D1C000CD049680B782A2B08BF013100F052F8DF
:105D2C00B0FA80F0400908BD0120FCE70020FAE73A
:105D3C00002301461A46184600F05EB80A44914208
:105D4C0000F1FF3300D1704710B511F8014B03F887
:105D5C00014F9142F9D110BD02440346934200D148
:105D6C00704703F8011BF9E738B5104B1D68AB6B96
:105D7C000446B3B91820FEF7EDFD0246A86320B91E
:105D8C000B4B0C484221FEF70DFE0B490B4BC0E9A7
:105D9C0000130B4B83600B23838100210120C2E98C
:105DAC000401AB6B00221C615A6138BDC0E50320B5
:105DBC004D660B0064660B000E33CDAB34126DE6F2
:105DCC00ECDE050010F8012B11F8013B012A28BF6D
:105DDC009A42F7D0D01A7047034611F8012B03F8FA
:105DEC00012B002AF9D17047034613F8012B002A26
:105DFC00FBD1181A013870472DE9F843DFF8B88049
:105E0C000646D8F800001F460D46914600F056F89D
:105E1C00254B1C6834B9254C1C60254B13B11B68F1
:105E2C00C4F8883063681F2B07DDD8F8000000F039
:105E3C0047F84FF0FF30BDE8F8834EB3D4F8880034
:105E4C0088B91C4B23B9D8F8000000F038F8F0E7FB
:105E5C004FF48470FEF77EFD0028F4D00023C0E9D7
:105E6C004033C4F88800636840F8239001229A40BC
:105E7C0000EB8301D0F800311343C0F80031022E3F
:105E8C00C1F8807002BFD0F804311343C0F804315C
:105E9C006368D8F800005A1C0233626044F823503F
:105EAC0000F00EF80020C6E7E8E703205CE70320CB
:105EBC000000000061490B0024E603207047704786
:105ECC00704700001D400B0059400B0081400B0037
:105EDC0085400B00000000004E6F204368616E6728
:105EEC0065202D2043616E63656C6C696E67204381
:105EFC004D440A007B226F6E223A747275652C2217
:105F0C00736174223A002C22627269223A002C22AC
:105F1C00687565223A007B226F6E223A66616C735B
:105F2C00657D0053656E64696E6720436F6D6D61AE
:105F3C006E6420746F2048756500505554202F6195
:105F4C0070692F002F6C69676874732F002F73743E
:105F5C0061746520485454502F312E3100486F73B2
:105F6C00743A2000436F6E74656E742D4C656E67C9
:105F7C0074683A2000436F6E74656E742D5479709A
:105F8C00653A20746578742F706C61696E3B636838
:105F9C0061727365743D5554462D380046726F6DB1
:105FAC0020487565005377697463684F4E202569E6
:105FBC00200A003C3F786D6C2076657273696F6EB9
:105FCC003D22312E302220656E636F64696E673D11
:105FDC00227574662D38223F3E3C733A456E7665C9
:105FEC006C6F706520786D6C6E733A733D226874BB
:105FFC0074703A2F2F736368656D61732E786D6CB6
:10600C00736F61702E6F72672F736F61702F656E77
:10601C0076656C6F70652F2220733A656E636F64C2
:10602C00696E675374796C653D22687474703A2F8D
:10603C002F736368656D61732E786D6C736F61700F
:10604C002E6F72672F736F61702F656E636F64694B
:10605C006E672F223E3C733A426F64793E3C753A30
:10606C0053657442696E61727953746174652078FA
:10607C006D6C6E733A753D2275726E3A42656C6B3F
:10608C00696E3A736572766963653A6261736963C6
:10609C006576656E743A31223E3C42696E61727966
:1060AC0053746174653E313C2F42696E6172795351
:1060BC00746174653E3C2F753A53657442696E6128
:1060CC00727953746174653E3C2F733A426F6479F4
:1060DC003E3C2F733A456E76656C6F70653E005092
:1060EC004F5354202F75706E702F636F6E74726FD8
:1060FC006C2F62617369636576656E7431204854E8
:10610C0054502F312E3100436F6E74656E742D54C4
:10611C007970653A20746578742F786D6C3B2063C8
:10612C006861727365743D7574662D3800534F4108
:10613C0050414354494F4E3A202275726E3A426593
:10614C006C6B696E3A736572766963653A626173FA
:10615C0069636576656E743A312353657442696E72
:10616C0061727953746174652200436F6E6E65635E
:10617C0074696F6E3A206B6565702D616C6976651C
:10618C00007377697463684F4646202569200A00BE
:10619C003C3F786D6C2076657273696F6E3D223171
:1061AC002E302220656E636F64696E673D227574B4
:1061BC00662D38223F3E3C733A456E76656C6F70A7
:1061CC006520786D6C6E733A733D22687474703A06
:1061DC002F2F736368656D61732E786D6C736F61AF
:1061EC00702E6F72672F736F61702F656E76656C92
:1061FC006F70652F2220733A656E636F64696E67EA
:10620C005374796C653D22687474703A2F2F7363E4
:10621C0068656D61732E786D6C736F61702E6F7223
:10622C00672F736F61702F656E636F64696E672F74
:10623C00223E3C733A426F64793E3C753A53657426
:10624C0042696E617279537461746520786D6C6EFD
:10625C00733A753D2275726E3A42656C6B696E3A93
:10626C00736572766963653A6261736963657665B5
:10627C006E743A31223E3C42696E6172795374619C
:10628C0074653E303C2F42696E617279537461744F
:10629C00653E3C2F753A53657442696E6172795351
:1062AC00746174653E3C2F733A426F64793E3C2FA7
:1062BC00733A456E76656C6F70653E00496F544E4F
:1062CC006574776F726B002E000A0A005475726E3B
:1062DC00696E67206F6E2057656D6F232025690AE4
:1062EC00005475726E696E67206F66662057656D17
:1062FC006F232025690A0070686F746F56616C7586
:10630C00653D616E616C6F67526561642025640D3B
:10631C00003139322E3136382E312E3330003139AE
:10632C00322E3136382E312E3331003139322E3176
:10633C0036382E312E3332003139322E3136382E5A
:10634C00312E3333003139322E3136382E312E3353
:10635C003400000000000000000000002F4A0B0079
:10636C00254A0B001B4A0B00114A0B00054A0B0077
:10637C00F9490B00F5570B00FD570B00ED490B00CD
:10638C00E5490B00DB490B00D1490B002D580B00E4
:10639C0000000000000000006170700025592D25E0
:1063AC006D2D25645425483A254D3A2553257A0000
:1063BC0061736374696D65000000000000000000EB
:1063CC004D4E0B003D4E0B003F4E0B0000000000ED
:1063DC00000000005F4F0B00C74F0B009D4F0B00E0
:1063EC00A54B0B008F4F0B00614F0B00714F0B0037
:1063FC00C14F0B00814F0B00594F0B0000000000E8
:10640C000000000069500B00D5500B00AD500B0084
:10641C00A54B0B007D500B0099500B008B500B00C3
:10642C00A7500B006B500B006F500B0000000000CE
:10643C00000000000D510B0057510B002F510B00A9
:10644C000F510B0037510B003F510B0047510B0004
:10645C004F510B00776972696E6700726563762025
:10646C006572726F72203D202564000000000000F0
:10647C000000000025520B0049520B0033570B0053
:10648C0057520B0029520B000000000000000000C6
:10649C00CD400B0001410B00A1510B00BB510B0077
:1064AC00C9550B00E5510B003F540B0019520B0062
:1064BC00D1540B0011530B006D540B007D560B0087
:1064CC000D540B001B520B00CD510B005D520B00F9
:1064DC00F1520B00000000000000000097570B0069
:1064EC008D570B0083570B0039570B0077570B0058
:1064FC006B570B00F5570B00FD570B005F570B004C
:10650C0057570B004D570B0043570B002D580B00E2
:10651C000000000000000000B5570B00BF570B0037
:10652C00C9570B00D3570B00DD570B00E9570B0075
:10653C00F5570B00FD570B0005580B0011580B00BD
:10654C0019580B0023580B002D580B0000537431B5
:10655C00395F53705F6D616B655F73686172656401
:10656C005F74616700000000B4650B0059650B0097
:10657C0014660B0088650B0038660B004E31305FDB
:10658C005F637878616269763131375F5F636C6124
:10659C0073735F747970655F696E666F4500000098
:1065AC00000000007C650B00655B0B00795B0B0049
:1065BC000D5D0B000D5D0B00E35B0B00255B0B0011
:1065CC00CB5B0B008D5B0B00575B0B0014660B0059
:1065DC00E4650B007C650B004E31305F5F637878AF
:1065EC00616269763132305F5F73695F636C6173CE
:1065FC00735F747970655F696E666F4500000000AB
:10660C0000000000D8650B000D5C0B00215C0B003A
:10661C000D5D0B000D5D0B00E35B0B00255B0B00B0
:10662C00E15C0B006D5C0B00355C0B00B4650B0082
:10663C0040660B00537439747970655F696E666FD0
:10664C00005245454E54206D616C6C6F6320737520
:10665C0063636565646564002F6D6E742F776F726C
:10666C006B73706163652F776F726B7370616365A9
:10667C002F4743432D31302D706970656C696E6501
:10668C002F6A656E6B696E732D4743432D31302D28
:10669C00706970656C696E652D34385F32303230DC
:1066AC00313132345F313630363138303634312F87
:1066BC007372632F6E65776C69622F6E65776C6988
:1066CC00622F6C6962632F7374646C69622F7261E0
:1066DC006E642E6300000000E9430B0019450B00AB
:1066EC00394A0B00614A0B00954B0B00CD4C0B004B
:1066FC00DD4C0B00F94C0B00A1570B0005590B009E
:04670C000000000089
:10671000040000001400000003000000474E550074
:1067200015A72AE2335C174B27F8E29CC59EE3F2DB
:04673000271C3A5098
:046734000000000061
:10673800C8AF0000E45700008CB9000088130000BF
:1067480050C30000102700001D630B002A630B00D4
:1067580037630B0044630B0051630B0001C000005A
:10676800BC630B00C4E5032000000000000000002B
:106778000000000000000000000000000000000011
:106788000000000000000000000000000000000001
:1067980000000000000000000000000000000000F1
:1067A80000000000000000000000000000000000E1
:1067B80000000000000000000000000000000000D1
:0C67C8000000000000000000ECE70320CF
:1067D400FFFFFFFF00000102030405060708090A82
:1067E4000B0C0D0E0F101112131415161718191A7D
:0867F4001B1C1D1E1F202800C4
:0467FC007856341285
:04000003B000401CED
:00000001FF
